:020000040800F2
:10000000000001204DAF00082D4E00082F4E0008C3
:10001000314E0008334E0008354E00080000000045
:10002000000000000000000000000000374E000843
:10003000394E0008000000003B4E00083D4E00080D
:1000400095AF000895AF000895AF000895AF000880
:1000500095AF000895AF000895AF000895AF000870
:1000600095AF000895AF000895AF000895AF000860
:1000700095AF000895AF000895AF000895AF000850
:10008000454E0008554E000895AF000895AF000892
:1000900095AF000895AF000895AF000895AF000830
:1000A00095AF000895AF000895AF000895AF000820
:1000B00095AF000895AF000895AF000895AF000810
:1000C00095AF000895AF000895AF000895AF000800
:1000D00095AF000895AF0008654E000895AF000881
:1000E00095AF000895AF000895AF000895AF0008E0
:1000F00095AF000895AF000895AF000895AF0008D0
:1001000095AF0008754E000895AF000895AF000840
:1001100095AF000895AF000895AF000895AF0008AF
:1001200095AF000895AF000895AF000895AF00089F
:1001300000000000000000000000000000000000BF
:1001400000000000000000000000000000000000AF
:10015000000000000000000000000000000000009F
:10016000000000000000000000000000000000008F
:10017000000000000000000000000000000000007F
:10018000000000000000000000000000000000006F
:10019000000000000000000000000000000000005F
:1001A000000000000000000000000000000000004F
:1001B000000000000000000000000000000000003F
:1001C000000000000000000000000000000000002F
:1001D000000000000000000000000000000000001F
:0401E0005FF8E0F1F3
:1001E80010B5054C237833B9044B13B10448AFF369
:1001F80000800123237010BD000A002000000000C9
:100208004C2F010808B5034B1BB103490348AFF352
:10021800008008BD00000000040A00204C2F0108DF
:1002280081F0004102E000BF83F0004330B54FEA9F
:1002380041044FEA430594EA050F08BF90EA020F0C
:100248001FBF54EA000C55EA020C7FEA645C7FEA9F
:10025800655C00F0E2804FEA5454D4EB5555B8BFC2
:100268006D420CDD2C4480EA020281EA030382EA33
:10027800000083EA010180EA020281EA0303362DC5
:1002880088BF30BD11F0004F4FEA01314FF4801C98
:100298004CEA113102D0404261EB410113F0004FAA
:1002A8004FEA03334CEA133302D0524263EB430361
:1002B80094EA050F00F0A780A4F10104D5F1200EFF
:1002C8000DDB02FA0EFC22FA05F2801841F100015A
:1002D80003FA0EF2801843FA05F359410EE0A5F12E
:1002E80020050EF1200E012A03FA0EFC28BF4CF05F
:1002F800020C43FA05F3C01851EBE37101F0004515
:1003080007D54FF0000EDCF1000C7EEB00006EEB21
:100318000101B1F5801F1BD3B1F5001F0CD34908AB
:100328005FEA30004FEA3C0C04F101044FEA445202
:1003380012F5800F80F09A80BCF1004F08BF5FEA89
:10034800500C50F1000041EB045141EA050130BD69
:100358005FEA4C0C404141EB0101013C28BFB1F57B
:10036800801FE9D291F0000F04BF01460020B1FAC6
:1003780081F308BF2033A3F10B03B3F120020CDA99
:100388000C3208DD02F1140CC2F10C0201FA0CF077
:1003980021FA02F10CE002F11402D8BFC2F1200CDC
:1003A80001FA02F120FA0CFCDCBF41EA0C01904092
:1003B800E41AA2BF01EB0451294330BD6FEA0404DB
:1003C8001F3C1CDA0C340EDC04F11404C4F12002C6
:1003D80020FA04F001FA02F340EA030021FA04F3D8
:1003E80045EA030130BDC4F10C04C4F1200220FA2F
:1003F80002F001FA04F340EA0300294630BD21FA6D
:1004080004F0294630BD94F0000F83F4801306BF32
:1004180081F480110134013D4EE77FEA645C18BF26
:100428007FEA655C29D094EA050F08BF90EA020FBD
:1004380005D054EA000C04BF1946104630BD91EAB5
:10044800030F1EBF0021002030BD5FEA545C05D1B8
:100458004000494128BF41F0004130BD14F58004F7
:100468003CBF01F5801130BD01F0004545F0FE416B
:1004780041F470014FF0000030BD7FEA645C1ABFA0
:10048800194610467FEA655C1CBF0B46024650EAD7
:10049800013406BF52EA033591EA030F41F4002103
:1004A80030BD00BF90F0000F04BF0021704730B589
:1004B8004FF4806404F132044FF000054FF000015E
:1004C80050E700BF90F0000F04BF0021704730B51F
:1004D8004FF4806404F1320410F0004548BF4042F4
:1004E8004FF000013EE700BF42004FEAE2014FEA49
:1004F80031014FEA02701FBF12F07F4393F07F4F24
:1005080081F06051704732F07F4208BF704793F026
:100518007F4F04BF41F40021704730B54FF4607439
:1005280001F0004521F000411CE700BF50EA01023C
:1005380008BF704730B54FF000050AE050EA0102E5
:1005480008BF704730B511F0004502D5404261EB55
:1005580041014FF4806404F132045FEA915C3FF496
:10056800D8AE4FF003025FEADC0C18BF03325FEA33
:10057800DC0C18BF033202EBDC02C2F1200300FAE4
:1005880003FC20FA02F001FA03FE40EA0E0021FA09
:1005980002F11444BDE600BF4A0011D212F5001260
:1005A80011D20DD56FF47873B3EB62520ED44FEAC3
:1005B800C12343F0004343EA505323FA02F0704743
:1005C8004FF00000704750EA013002D14FF0FF3081
:1005D80070474FF00000704780F0004002E000BF15
:1005E80081F0004142001FBF5FEA410392EA030F16
:1005F8007FEA226C7FEA236C6AD04FEA1262D2EB60
:100608001363C1BFD218414048404140B8BF5B4264
:10061800192B88BF704710F0004F40F4000020F0FD
:100628007F4018BF404211F0004F41F4000121F013
:100638007F4118BF494292EA030F3FD0A2F101025D
:1006480041FA03FC10EB0C00C3F1200301FA03F19B
:1006580000F0004302D5494260EB4000B0F5000FBE
:1006680013D3B0F1807F06D340084FEA310102F17D
:100678000102FE2A51D2B1F1004F40EBC25008BF2F
:1006880020F0010040EA03007047490040EB0000F9
:10069800013A28BFB0F5000FEDD2B0FA80FCACF1FA
:1006A800080CB2EB0C0200FA0CF0AABF00EBC25027
:1006B80052421843BCBFD0401843704792F0000F15
:1006C80081F4000106BF80F400000132013BB5E768
:1006D8004FEA41037FEA226C18BF7FEA236C21D0DE
:1006E80092EA030F04D092F0000F08BF0846704743
:1006F80090EA010F1CBF0020704712F07F4F04D111
:10070800400028BF40F00040704712F100723CBF23
:1007180000F50000704700F0004343F0FE4040F44D
:10072800000070477FEA226216BF08467FEA23630B
:100738000146420206BF5FEA412390EA010F40F4F6
:10074800800070474FF0000304E000BF10F0004342
:1007580048BF40425FEA000C08BF704743F0964329
:1007680001464FF000001CE050EA010208BF704744
:100778004FF000030AE000BF50EA010208BF7047CB
:1007880011F0004302D5404261EB41015FEA010CE0
:1007980002BF84460146002043F0B64308BFA3F1D8
:1007A8008053A3F50003BCFA8CF2083AA3EBC253BA
:1007B80010DB01FA02FC634400FA02FCC2F12002D9
:1007C800BCF1004F20FA02F243EB020008BF20F010
:1007D8000100704702F1200201FA02FCC2F1200276
:1007E80050EA4C0021FA02F243EB020008BF20EA6B
:1007F800DC7070474FF0FF0C1CEAD0521EBF1CEA99
:10080800D15392EA0C0F93EA0C0F6FD01A4480EA86
:10081800010C400218BF5FEA41211ED04FF000636F
:1008280043EA501043EA5111A0FB01310CF000409B
:10083800B1F5000F3EBF490041EAD3715B0040EAC1
:10084800010062F17F02FD2A1DD8B3F1004F40EB91
:10085800C25008BF20F00100704790F0000F0CF064
:10086800004C08BF49024CEA502040EA51207F3A28
:10087800C2BFD2F1FF0340EAC250704740F4000003
:100888004FF00003013A5DDC12F1190FDCBF00F0F4
:1008980000407047C2F10002410021FA02F1C2F1A2
:1008A800200200FA02FC5FEA310040F1000053EA3E
:1008B8004C0308BF20EADC70704792F0000F00F08C
:1008C800004C02BF400010F4000F013AF9D040EA92
:1008D8000C0093F0000F01F0004C02BF490011F426
:1008E800000F013BF9D041EA0C018FE70CEAD15324
:1008F80092EA0C0F18BF93EA0C0F0AD030F0004CA4
:1009080018BF31F0004CD8D180EA010000F0004057
:10091800704790F0000F17BF90F0004F084691F015
:10092800000F91F0004F14D092EA0C0F01D142024F
:100938000FD193EA0C0F03D14B0218BF084608D118
:1009480080EA010000F0004040F0FE4040F4000062
:10095800704740F0FE4040F4400070474FF0FF0CF5
:100968001CEAD0521EBF1CEAD15392EA0C0F93EA3C
:100978000C0F69D0A2EB030280EA010C49024FEA8E
:10098800402037D04FF0805343EA111143EA101347
:100998000CF000408B4238BF5B0042F17D024FF4FF
:1009A800000C8B4224BF5B1A40EA0C00B3EB510FDA
:1009B80024BFA3EB510340EA5C00B3EB910F24BFC3
:1009C800A3EB910340EA9C00B3EBD10F24BFA3EB48
:1009D800D10340EADC001B0118BF5FEA1C1CE0D110
:1009E800FD2A3FF650AF8B4240EBC25008BF20F0C3
:1009F800010070470CF0004C4CEA50207F32C2BF17
:100A0800D2F1FF0340EAC250704740F400004FF0B3
:100A18000003013A37E792F0000F00F0004C02BFE4
:100A2800400010F4000F013AF9D040EA0C0093F0AE
:100A3800000F01F0004C02BF490011F4000F013B08
:100A4800F9D041EA0C0195E70CEAD15392EA0C0F70
:100A580008D142027FF47DAF93EA0C0F7FF470AFA8
:100A6800084676E793EA0C0F04D14B023FF44CAFEB
:100A780008466EE730F0004C18BF31F0004CCAD180
:100A880030F000427FF45CAF31F000437FF43CAFBC
:100A98005FE700BF4FF0FF3C06E000BF4FF0010CDE
:100AA80002E000BF4FF0010C4DF804CD4FEA4002C0
:100AB8004FEA41037FEA226C18BF7FEA236C11D00A
:100AC80001B052EA530C18BF90EA010F58BFB2EBBD
:100AD800030088BFC81738BF6FEAE17018BF40F03D
:100AE800010070477FEA226C02D15FEA402C05D1F1
:100AF8007FEA236CE4D15FEA412CE1D05DF8040B76
:100B0800704700BF844608466146FFE70FB5FFF708
:100B1800C9FF002848BF10F1000F0FBD4DF808EDC0
:100B2800FFF7F4FF0CBF012000205DF808FB00BFB1
:100B38004DF808EDFFF7EAFF34BF012000205DF80B
:100B480008FB00BF4DF808EDFFF7E0FF94BF012058
:100B580000205DF808FB00BF4DF808EDFFF7D2FF55
:100B680094BF012000205DF808FB00BF4DF808ED98
:100B7800FFF7C8FF34BF012000205DF808FB00BF65
:100B880042000ED2B2F1FE4F0BD34FF09E03B3EBEF
:100B9800126209D44FEA002343F0004323FA02F01B
:100BA80070474FF00000704712F1610F01D1420207
:100BB80002D14FF0FF3070474FF00000704700BF80
:100BC80053B94AB9002908BF00281CBF4FF0FF31AC
:100BD8004FF0FF3000F076B9ADF1080C6DE904CEA6
:100BE80000F006F8DDF804E0DDE9022304B0704700
:100BF8002DE9F047089E0D4604468846002B4DD146
:100C08008A42944668D9B2FA82F252B101FA02F3E2
:100C1800C2F1200120FA01F10CFA02FC41EA0308B2
:100C280094404FEA1C41B8FBF1F71FFA8CFE01FB18
:100C3800178807FB0EF0230C43EA084398420AD9A9
:100C48001CEB030307F1FF3580F01E81984240F248
:100C58001B81023F63441B1AB3FBF1F001FB103305
:100C680000FB0EFEA4B244EA0344A6450AD91CEBD5
:100C7800040400F1FF3380F00981A64540F20681A3
:100C8800644402380021A4EB0E0440EA07401EB178
:100C98000023D440C6E90043BDE8F0878B4208D959
:100CA800002E00F0EE800021C6E900050846BDE8E8
:100CB800F087B3FA83F100294AD1AB4202D38242CA
:100CC80000F2FC80841A65EB030301209846002E8D
:100CD800E2D0C6E90048DFE702B9FFDEB2FA82F2E5
:100CE800002A40F09180A1EB0C0001214FEA1C473B
:100CF8001FFA8CFEB0FBF7F307FB1300250C45EA3F
:100D080000450EFB03F0A84208D91CEB050503F1CA
:100D1800FF3802D2A84200F2CE8043462D1AB5FB16
:100D2800F7F007FB10550EFB00FEA4B244EA054499
:100D3800A64508D91CEB040400F1FF3502D2A645EC
:100D480000F2B6802846A4EB0E0440EA03409EE772
:100D5800C1F120078B4022FA07FC4CEA030C25FA64
:100D680007FA4FEA1C49BAFBF9F820FA07F309FB1E
:100D780018AA8D401FFA8CFE1D4300FA01F308FBE8
:100D88000EF02C0C44EA0A44A04202FA01F20BD9F4
:100D98001CEB040408F1FF3A80F08880A04240F27E
:100DA8008580A8F102086444241AB4FBF9F009FB11
:100DB800104400FB0EFEADB245EA0444A64508D92E
:100DC8001CEB040400F1FF356CD2A6456AD9023841
:100DD800644440EA0840A0FB0295A4EB0E04AC4230
:100DE800C846AE4656D353D0002E69D0B3EB08029E
:100DF80064EB0E0422FA01F304FA07F71F43CC4010
:100E0800C6E90074002147E70CFA02FCC2F1200190
:100E180025FA01F34FEA1C4720FA01F195400D43EA
:100E2800B3FBF7F107FB11331FFA8CFE280C40EADD
:100E3800034001FB0EF3834204FA02F408D91CEBC9
:100E4800000001F1FF382FD283422DD902396044C6
:100E5800C01AB0FBF7F307FB1300ADB245EA004533
:100E680003FB0EF0A84208D91CEB050503F1FF3877
:100E780016D2A84214D9023B6544281A43EA014114
:100E880038E73146304607E72F46E4E61846F9E6E4
:100E98004B45A9D2B9EB020865EB0C0E0138A3E764
:100EA8004346EAE7284694E74146D1E7D0467BE740
:100EB8006444023847E7023B65442FE7084606E7E3
:100EC8003146E9E6704700BF844641EA000313F063
:100ED800030349D1403A23D30B6803604B6843604E
:100EE8008B688360CB68C3600B6903614B6943619E
:100EF8008B698361CB69C3610B6A03624B6A436286
:100F08008B6A8362CB6AC3620B6B03634B6B43636D
:100F18008B6B8363CB6BC36340304031403ADBD289
:100F280030320BD30B6803604B6843608B68836077
:100F3800CB68C36010301031103AF3D20C3205D3AD
:100F480051F8043B40F8043B043AF9D2043208D083
:100F5800D2071CBF11F8013B00F8013B01D30B88F5
:100F680003806046704700BF082A13D38B07B1D0AF
:100F780010F00303AED0C3F10403D21ADB071CBF81
:100F880011F8013B00F8013BA4D331F8023B20F8EB
:100F9800023B9FE7043AD9D3013A11F8013B00F824
:100FA800013BF9D20B7803704B7843708B788370D0
:100FB8006046704770B54FF0FF0C4CF4E06C1CEACB
:100FC80011541DBF1CEA135594EA0C0F95EA0C0F37
:100FD80000F0DEF82C4481EA030621EA4C5123EAAA
:100FE8004C5350EA013518BF52EA033541F48011D9
:100FF80043F4801338D0A0FB02CE4FF00005E1FB8C
:1010080002E506F00042E0FB03E54FF00006E1FBD5
:1010180003569CF0000F18BF4EF0010EA4F1FF0418
:10102800B6F5007F64F5407404D25FEA4E0E6D4158
:1010380046EB060642EAC62141EA55514FEAC52069
:1010480040EA5E504FEACE2EB4F1FD0C88BFBCF5E5
:10105800E06F1ED8BEF1004F08BF5FEA500E50F196
:10106800000041EB045170BD06F0004646EA01015C
:1010780040EA020081EA0301B4EB5C04C2BFD4EB8E
:101088000C0541EA045170BD41F480114FF0000E87
:10109800013C00F3AB8014F1360FDEBF002001F0F5
:1010A800004170BDC4F10004203C35DA0C341BDC6F
:1010B80004F11404C4F1200500FA05F320FA04F041
:1010C80001FA05F240EA020001F0004221F0004175
:1010D80010EBD37021FA04F642EB06015EEA430EE8
:1010E80008BF20EAD37070BDC4F10C04C4F1200518
:1010F80000FA04F320FA05F001FA04F240EA0200CB
:1011080001F0004110EBD37041F100015EEA430E9B
:1011180008BF20EAD37070BDC4F1200500FA05F2BB
:101128004EEA020E20FA04F301FA05F243EA02033A
:1011380021FA04F001F0004121FA04F220EA020049
:1011480000EBD3705EEA430E08BF20EAD37070BD8F
:1011580094F0000F0FD101F00046400041EB01016F
:1011680011F4801F08BF013CF7D041EA060195F051
:10117800000F18BF704703F00046520043EB03030B
:1011880013F4801F08BF013DF7D043EA06037047F8
:1011980094EA0C0F0CEA135518BF95EA0C0F0CD003
:1011A80050EA410618BF52EA4306D1D181EA030149
:1011B80001F000414FF0000070BD50EA410606BF43
:1011C8001046194652EA430619D094EA0C0F02D188
:1011D80050EA013613D195EA0C0F05D152EA0336CD
:1011E8001CBF104619460AD181EA030101F00041EB
:1011F80041F0FE4141F470014FF0000070BD41F034
:10120800FE4141F4780170BD70B54FF0FF0C4CF40D
:10121800E06C1CEA11541DBF1CEA135594EA0C0F2C
:1012280095EA0C0F00F0A7F8A4EB050481EA030E79
:1012380052EA03354FEA013100F088804FEA033360
:101248004FF0805545EA131343EA12634FEA02222E
:1012580045EA111545EA10654FEA00260EF00041EF
:101268009D4208BF964244F1FD0404F5407402D241
:101278005B084FEA3202B61A65EB03055B084FEAD2
:1012880032024FF480104FF4002CB6EB020E75EBCF
:10129800030E22BFB61A754640EA0C005B084FEAF7
:1012A8003202B6EB020E75EB030E22BFB61A754674
:1012B80040EA5C005B084FEA3202B6EB020E75EBBF
:1012C800030E22BFB61A754640EA9C005B084FEA37
:1012D8003202B6EB020E75EB030E22BFB61A754644
:1012E80040EADC0055EA060E18D04FEA051545EA33
:1012F80016754FEA06164FEAC30343EA52734FEADC
:10130800C2025FEA1C1CC0D111F4801F0BD141EA54
:1013180000014FF000004FF0004CB6E711F4801FB9
:1013280004BF01430020B4F1FD0C88BFBCF5E06F99
:101338003FF6AFAEB5EB030C04BFB6EB020C5FEAA9
:10134800500C50F1000041EB045170BD0EF0004EFE
:101358004EEA113114EB5C04C2BFD4EB0C0541EA30
:10136800045170BD41F480114FF0000E013C90E62D
:1013780045EA060E8DE60CEA135594EA0C0F08BFF1
:1013880095EA0C0F3FF43BAF94EA0C0F0AD150EAF0
:1013980001347FF434AF95EA0C0F7FF425AF104683
:1013A80019462CE795EA0C0F06D152EA03353FF4AB
:1013B800FDAE1046194622E750EA410618BF52EA28
:1013C80043067FF4C5AE50EA41047FF40DAF52EAFC
:1013D80043057FF4EBAE12E74FF0FF3C06E000BF99
:1013E8004FF0010C02E000BF4FF0010C4DF804CDA6
:1013F8004FEA410C7FEA6C5C4FEA430C18BF7FEA66
:101408006C5C1BD001B050EA410C0CBF52EA430C93
:1014180091EA030F02BF90EA020F0020704710F113
:10142800000F91EA030F58BF994208BF90422CBFA2
:10143800D8176FEAE37040F0010070474FEA410C9B
:101448007FEA6C5C02D150EA013C07D14FEA430CB9
:101458007FEA6C5CD6D152EA033CD3D05DF8040B2A
:10146800704700BF8446104662468C46194663465C
:1014780000E000BF01B5FFF7B7FF002848BF10F133
:10148800000F01BD4DF808EDFFF7F4FF0CBF012078
:1014980000205DF808FB00BF4DF808EDFFF7EAFFF4
:1014A80034BF012000205DF808FB00BF4DF808EDAF
:1014B800FFF7E0FF94BF012000205DF808FB00BFA4
:1014C8004DF808EDFFF7CEFF94BF012000205DF82E
:1014D80008FB00BF4DF808EDFFF7C4FF34BF01203B
:1014E80000205DF808FB00BF4FEA410C7FEA6C5C06
:1014F80002D150EA013C0AD14FEA430C7FEA6C5C06
:1015080002D152EA033C02D14FF0000070474FF07D
:10151800010070474FEA410212F5001215D211D5A9
:101528006FF47873B3EB625212D94FEAC12343F0D8
:10153800004343EA505311F0004F23FA02F018BF5A
:10154800404270474FF00000704750EA013005D123
:1015580011F0004008BF6FF0004070474FF00000E6
:10156800704700BF00B583B00E4B5A6942F00102C4
:101578005A615B6903F001030193019B0022114644
:10158800102003F0B3FF102003F0E8FF00221146FB
:10159800112003F0ABFF112003F0E0FF03B05DF86A
:1015A80004FB00BF0010024030B587B0002302934F
:1015B8000393049305931C4B1B680BB107B030BD14
:1015C800194B01221A60194B5A6942F480725A6108
:1015D8005B6903F480730193019B0F230293022537
:1015E80003950324059402A9114804F071FA41F205
:1015F800014302930395059402A90E4804F068FA82
:101608004FF6807302930395059402A90A4804F0E3
:101618005FFA4CF2337302930395059402A90748C5
:1016280004F056FACAE700BF1C0A00200010024066
:10163800001C014000200140001801400014014036
:1016480030B58FB000230793089309930A930B933F
:101658000C930D93009301930293039304930593C2
:10166800069331484FF02042026002F582724260D0
:1016780006218160C3600361102242618361C361F6
:10168800036243624FF480548462C3624FF480441F
:1016980004634363836307910F2408941A2309930F
:1016A8000B9211230C930325009501940291049247
:1016B80005936A4607A905F088FF00282DD11B4825
:1016C8004FF02043036003F5827343600423836073
:1016D8000022C2600261102343618261C26102621A
:1016E80042624FF480518162C26202634263826344
:1016F80007920F210891012109910A920B93112356
:101708000C930D9207A905F060FF48B9084AD36900
:1017180043F48063D3610FB030BD02F0A2FFCEE77F
:1017280002F09FFFF2E700BF200A0020680A0020AD
:101738000000014008B5FFF737FF08BD2DE9F04369
:101748008DB00025089509950A950B954A4B9A691D
:1017580042F040029A619A6902F040020192019AAD
:101768009A6942F080029A619A6902F080020292B4
:10177800029A9A6942F004029A619A6902F0040294
:101788000392039A9A6942F008029A619A6902F0F0
:1017980008020492049A9A6942F480729A619A69DA
:1017A80002F480720592059A9A6942F020029A61C1
:1017B8009A6902F020020692069A9A6942F010028B
:1017C8009A619B6903F010030793079B2B4F012233
:1017D8002021384604F0A3FA294E2A4641F2010195
:1017E800304604F09CFA01222021304604F097FA92
:1017F80018230893099501240A9408A9384604F087
:1018080067F94FF02009CDF8209009940A944FF019
:101818000308CDF82C800DEB0901384604F058F97F
:101828000894099502270A970DEB0901154804F059
:101838004FF9089409940A970B970DEB0901304664
:1018480004F046F94FF48053089309940A950B97CE
:101858000DEB0901304604F03BF9CDF820900994CE
:101868000A94CDF82C800DEB0901304604F030F9CC
:101878000DB0BDE8F08300BF001002400018014021
:10188800000C01400008014008B5012819D0284B78
:101898001B7803B31021274804F03AFA20B1082135
:1018A800244804F035FA80B90A2003F0F9FD204BEA
:1018B80000221A7010211F4804F02AFA98B9012052
:1018C80010E01B4B01221A70E1E701211A4804F0CD
:1018D8001FFA0128E8D01021164804F019FA012847
:1018E8000ED0002008BD0821124804F011FAC0B13A
:1018F8000121114804F00CFA012814D00020F1E766
:1019080008210C4804F004FA012801D00020E9E776
:101918000121094804F0FCF938B9054B01221A7075
:10192800E0E70220DEE70320DCE70020DAE700BF7B
:1019380000000020001801400008014082B0ADF806
:101948000600BDF806309BB2ADF80630BDF806308B
:101958009BB2024AA2F8FE3002B070470007006C42
:1019680082B0ADF80600BDF806309BB2ADF806307F
:10197800BDF806309BB2024AA2F8003102B07047A7
:101988000007006C82B0054BB3F800319BB2ADF88C
:101998000630BDF8060080B202B070470007006C40
:1019A800024BA3F8FE00A3F8001170470007006C73
:1019B800024B1A89024BA3F8FE207047B00A002098
:1019C8000007006C70B505460C46404B9B8841F6F5
:1019D8006312934217D045F21052934257D03B4EB0
:1019E8007089FFF7ABFF280AFFF7BAFFE8B2FFF7E5
:1019F800B7FFB089FFF7A2FF200AFFF7B1FFE0B2F7
:101A0800FFF7AEFF70BD314B9B7953BB2F4B188846
:101A1800451BADB2013DADB25889FFF78FFF0020DD
:101A2800FFF79EFF0020FFF79BFF280AFFF798FFAC
:101A3800E8B2FFF795FF254DA889FFF77FFF200A39
:101A4800FFF78EFFE0B2FFF78BFF68880138C0F31D
:101A58000F20FFF785FF68880138C0B2FFF780FFC5
:101A6800D0E71A4E7089FFF769FF280AFFF778FF59
:101A7800E8B2FFF775FF30880138C0F30F20FFF791
:101A88006FFF30880138C0B2FFF76AFFD3E70F4E07
:101A98007089FFF753FF280AFFF762FF708901304A
:101AA80080B2FFF74BFFE8B2FFF75AFFB089FFF7A4
:101AB80045FF200AFFF754FFB089013080B2FFF7D5
:101AC8003DFFE0B2FFF74CFF9CE700BFB00A0020E3
:101AD80010B5744B9B79012B10D02BB9714B9A8898
:101AE80041F663139A420FD00138062800F2848029
:101AF800DFE800F07472706E6C6A1600694A9188AB
:101B080041F663129142E8D00728EDD8DFE800F0EB
:101B180072706C6E06046A68002402E0802400E09B
:101B2800E024604B9B8845F21052934266D03620E1
:101B380049F24132934203D047F28972934201D16C
:101B480044F008042146FFF72BFF564B9B8841F6CB
:101B5800631293420AD014F0200F52D0514A1188D0
:101B68005288914202D24F480280418045F2105279
:101B780093424FD04B4C6089FFF7E0FE0020FFF7FF
:101B8800EFFE0020FFF7ECFE20880138C0F30F209D
:101B9800FFF7E6FE20880138C0B2FFF7E1FEA08912
:101BA800FFF7CCFE0020FFF7DBFE0020FFF7D8FE92
:101BB80060880138C0F30F20FFF7D2FE6088013833
:101BC800C0B2FFF7CDFE10BDA024AAE76024A8E7A5
:101BD8002024A6E7C024A4E74024A2E78024A0E7A5
:101BE80040249EE7C0249CE720249AE7602498E7D5
:101BF800E02496E7A02494E7002492E74FF4585095
:101C080096E7284A118852889142AFD92548028020
:101C18004180ABE7234C6089FFF790FE0020FFF777
:101C28009FFE6089013080B2FFF788FE0020FFF731
:101C380097FE6089023080B2FFF780FE2088013865
:101C4800C0F30F20FFF78CFE6089033080B2FFF7E6
:101C580075FE20880138C0B2FFF782FEA089FFF721
:101C68006DFE0020FFF77CFEA089013080B2FFF7EF
:101C780065FE0020FFF774FEA089023080B2FFF7EE
:101C88005DFE60880138C0F30F20FFF769FEA08968
:101C9800033080B2FFF752FE60880138C0B2FFF708
:101CA8005FFE90E7B00A00202DE9F04104460E4699
:101CB8001546394B9B8845F2105C634539D041F68F
:101CC8006312934253D1344B9B792BB9324B18880A
:101CD800041BA4B2013CA4B22F4F7889FFF72EFE53
:101CE8004FEA14284046FFF73BFEE4B22046FFF7D0
:101CF80037FE4046FFF734FE2046FFF731FEB8892D
:101D0800FFF71CFE340A2046FFF72AFEF6B23046DB
:101D1800FFF726FE2046FFF723FE3046FFF720FE9A
:101D28001D4B19891D4BA3F8FE10A3F80051BDE8FF
:101D3800F081194F7889FFF701FE200AFFF710FE9E
:101D48007889013080B2FFF7F9FDE0B2FFF708FEAD
:101D5800B889FFF7F3FD300AFFF702FEB8890130B2
:101D680080B2FFF7EBFDF0B2FFF7FAFDD8E70A4FB4
:101D78007889FFF7E3FD200AFFF7F2FDE0B2FFF7ED
:101D8800EFFDB889FFF7DAFD300AFFF7E9FDF0B299
:101D9800FFF7E6FDC4E700BFB00A00200007006CAB
:101DA80010B50446BE20FFF7C9FD0520FFF7D8FD92
:101DB8002046FEF787FB0CA3D3E90023FFF7FAF8C8
:101DC800FEF7EAFB80B2FFF7CBFD0120FFF7C8FD65
:101DD800FF20FFF7C5FD0020FFF7C2FD0020FFF739
:101DE800BFFD10BDAFF30080666666666666044098
:101DF80008B5444B9871002843D1F0221A804FF45B
:101E0800A0725A809B8845F21052934212D041F634
:101E1800631293421FD03B4A2C2111812A21518100
:101E28002B21918145F21032934222D00020FFF7F6
:101E38004FFE08BD334A4FF4305111814FF42851F9
:101E480051814FF42C5191814FF4F07111804FF46E
:101E580048715180E6E72B4A2C2111812B215181B1
:101E68002A2191814FF4F07111804FF4487151800B
:101E7800D8E7244B4FF4A0721A804FF4F0725A80BE
:101E8800D4E7204B4FF4A0721A80F0225A809B8826
:101E980045F21052934216D041F66312934223D072
:101EA800184A2C2111812A2151812B21918145F237
:101EB80010329342BAD1134B4FF4F0721A804FF498
:101EC800A0725A80B2E70F4A4FF4305111814FF493
:101ED800285151814FF42C5191814FF44871118050
:101EE8004FF4F0715180E2E7064A2C2111812A2132
:101EF80051812B2191814FF4487111804FF4F07179
:101F08005180D4E7B00A002038B50546094B1A8835
:101F18005C8802FB04F400210846FFF753FDFFF735
:101F280047FD002303E0044AA2F800510133A3420D
:101F3800F9D338BDB00A00200007006C10B5D320D3
:101F4800FFF7FCFCFFF71EFD644CA080FFF71AFDAD
:101F5800A080FFF717FDA0800002A080FFF712FD08
:101F6800A388184380B2A08049F2413398422BD10C
:101F78005A4CA1885A4809F087F8A38849F2413297
:101F8800934200F0B18047F28972934200F0C18118
:101F980045F21032934200F08F8245F2105293427C
:101FA80001F0038241F66312934202F07C81002023
:101FB800FFF71EFF012211464A4803F0B0FE4FF614
:101FC800FF70FFF7A1FF10BD0420FFF7B7FCFFF774
:101FD800D9FCA080FFF7D6FCA080FFF7D3FCA08037
:101FE8000002A080FFF7CEFCA388184380B2A0802F
:101FF80048F2525398426CD0384B9A8847F289730A
:102008009A42B5D0D420FFF799FCFFF7BBFC334CBC
:10201800A080FFF7B7FCA080FFF7B4FCA080000207
:10202800A080FFF7AFFCA388184380B2A08045F2D8
:10203800103398429CD055214FF47040FFF7B0FC04
:10204800AA214FF20100FFF7ABFC52214FF2020028
:10205800FFF7A6FC08214FF20300FFF7A1FC0121BE
:102068004FF20400FFF79CFC4FF44540FFF766FC75
:10207800FFF788FCA0800002A0804CF20150FFF717
:102088005DFCFFF77FFCA3881843A080322003F093
:1020980007FAA28845F210539A423FF469AFA1208B
:1020A800FFF74CFCFFF76EFCA080FFF76BFCA080ED
:1020B8000002A080FFF766FCA38803439BB2A380BD
:1020C80045F2617293427FF453AF41F66312A280E6
:1020D8004EE747F28972A2808EE700BFB00A00205F
:1020E800682F0108000C0140CF20FFF727FC0020D3
:1020F800FFF736FCC120FFF733FC3020FFF730FC38
:10210800ED20FFF71BFC6420FFF72AFC0320FFF7F4
:1021180027FC1220FFF724FC8120FFF721FCE82090
:10212800FFF70CFC8520FFF71BFC1020FFF718FCBD
:102138007A20FFF715FCCB20FFF700FC3920FFF7CA
:102148000FFC2C20FFF70CFC0020FFF709FC3420C3
:10215800FFF706FC0220FFF703FCF720FFF7EEFB72
:102168002020FFF7FDFBEA20FFF7E8FB0020FFF740
:10217800F7FB0020FFF7F4FBC020FFF7DFFB1B2075
:10218800FFF7EEFBC120FFF7D9FB0120FFF7E8FBC3
:10219800C520FFF7D3FB3020FFF7E2FB3020FFF725
:1021A800DFFBC720FFF7CAFBB720FFF7D9FB3620B4
:1021B800FFF7C4FB4820FFF7D3FB3A20FFF7BEFB2D
:1021C8005520FFF7CDFBB120FFF7B8FB0020FFF744
:1021D800C7FB1A20FFF7C4FBB620FFF7AFFB0A20A6
:1021E800FFF7BEFBA220FFF7BBFBF220FFF7A6FB21
:1021F8000020FFF7B5FB2620FFF7A0FB0120FFF723
:10220800AFFBE020FFF79AFB0F20FFF7A9FB2A207E
:10221800FFF7A6FB2820FFF7A3FB0820FFF7A0FB8A
:102228000E20FFF79DFB0820FFF79AFB5420FFF7CD
:1022380097FBA920FFF794FB4320FFF791FB0A20A7
:10224800FFF78EFB0F20FFF78BFB0020FFF788FBC3
:102258000020FFF785FB0020FFF782FB0020FFF737
:102268007FFBE120FFF76AFB0020FFF779FB1520D1
:10227800FFF776FB1720FFF773FB0720FFF770FBCC
:102288001120FFF76DFB0620FFF76AFB2B20FFF7F5
:1022980067FB5620FFF764FB3C20FFF761FB052036
:1022A800FFF75EFB1020FFF75BFB0F20FFF758FBE3
:1022B8003F20FFF755FB3F20FFF752FB0F20FFF7AA
:1022C8004FFB2B20FFF73AFB0020FFF749FB0020CC
:1022D800FFF746FB0120FFF743FB3F20FFF740FBDA
:1022E8002A20FFF72BFB0020FFF73AFB0020FFF71F
:1022F80037FB0020FFF734FBEF20FFF731FB1120FD
:10230800FFF71CFB782003F0CBF82920FFF716FB1A
:102318004DE61120FFF712FB782003F0C1F83620B4
:10232800FFF70CFB0020FFF71BFB3A20FFF706FB2B
:102338000520FFF715FBB220FFF700FB0C20FFF785
:102348000FFB0C20FFF70CFB0020FFF709FB3320E5
:10235800FFF706FB3320FFF703FBB720FFF7EEFA82
:102368003520FFF7FDFABB20FFF7E8FA3220FFF728
:10237800F7FAC020FFF7E2FA0C20FFF7F1FAC220C3
:10238800FFF7DCFA0120FFF7EBFAC320FFF7D6FAD4
:102398001020FFF7E5FAC420FFF7D0FA2020FFF756
:1023A800DFFAC620FFF7CAFA0F20FFF7D9FAD020C4
:1023B800FFF7C4FAA420FFF7D3FAA120FFF7D0FA59
:1023C800E020FFF7BBFAD020FFF7CAFA0020FFF79A
:1023D800C7FA0220FFF7C4FA0720FFF7C1FA0A205C
:1023E800FFF7BEFA2820FFF7BBFA3220FFF7B8FA4A
:1023F8004420FFF7B5FA4220FFF7B2FA0620FFF7AC
:10240800AFFA0E20FFF7ACFA1220FFF7A9FA142052
:10241800FFF7A6FA1720FFF7A3FAE120FFF78EFAD5
:10242800D020FFF79DFA0020FFF79AFA0220FFF765
:1024380097FA0720FFF794FA0A20FFF791FA282065
:10244800FFF78EFA3120FFF78BFA5420FFF788FA4E
:102458004720FFF785FA0E20FFF782FA1C20FFF7C6
:102468007FFA1720FFF77CFA1B20FFF779FA1E2066
:10247800FFF776FA2A20FFF761FA0020FFF770FAD3
:102488000020FFF76DFA0020FFF76AFAEF20FFF748
:1024980067FA2B20FFF752FA0020FFF761FA0020B5
:1024A800FFF75EFA0120FFF75BFA3F20FFF758FAC3
:1024B8002920FFF743FA7AE5ED20FFF73FFA0120DC
:1024C800FFF74EFAFE20FFF74BFAEE20FFF736FA39
:1024D800DE20FFF745FA2120FFF742FAF120FFF747
:1024E8002DFA0120FFF73CFADF20FFF727FA10202A
:1024F800FFF736FAC420FFF721FA8F20FFF730FAEA
:10250800C620FFF71BFA0020FFF72AFAE220FFF7A0
:1025180027FAE220FFF724FAE220FFF721FABF208A
:10252800FFF70CFAAA20FFF71BFAB020FFF706FA0C
:102538000D20FFF715FA0020FFF712FA0D20FFF71C
:102548000FFA0020FFF70CFA1120FFF709FA002014
:10255800FFF706FA1920FFF703FA0020FFF700FA41
:102568002120FFF7FDF90020FFF7FAF92D20FFF7EA
:10257800F7F90020FFF7F4F93D20FFF7F1F9002003
:10258800FFF7EEF95D20FFF7EBF90020FFF7E8F918
:102598005D20FFF7E5F90020FFF7E2F9B120FFF72A
:1025A800CDF98020FFF7DCF90020FFF7D9F98B205F
:1025B800FFF7D6F90020FFF7D3F99620FFF7D0F9F7
:1025C8000020FFF7CDF9B220FFF7B8F90020FFF798
:1025D800C7F90020FFF7C4F90220FFF7C1F900206E
:1025E800FFF7BEF90320FFF7BBF90020FFF7B8F9A2
:1025F800B320FFF7A3F90020FFF7B2F90020FFF797
:10260800AFF90020FFF7ACF90020FFF7A9F9002087
:10261800FFF7A6F90020FFF7A3F90020FFF7A0F9BC
:102628000020FFF79DF90020FFF79AF90020FFF737
:1026380097F90020FFF794F90020FFF791F900209F
:10264800FFF78EF90020FFF78BF90020FFF788F9D4
:102658000020FFF785F90020FFF782F90020FFF737
:102668007FF90020FFF77CF90020FFF779F90020B7
:10267800FFF776F90020FFF773F90020FFF770F9EC
:102688000020FFF76DF9B420FFF758F98B20FFF70A
:1026980067F90020FFF764F99620FFF761F9002039
:1026A800FFF75EF9A120FFF75BF90020FFF758F963
:1026B800B520FFF743F90220FFF752F90020FFF792
:1026C8004FF90320FFF74CF90020FFF749F90420E0
:1026D800FFF746F90020FFF743F9B620FFF72EF978
:1026E8000020FFF73DF90020FFF73AF9B720FFF780
:1026F80025F90020FFF734F90020FFF731F93F20D2
:10270800FFF72EF90020FFF72BF95E20FFF728F9D5
:102718000020FFF725F96420FFF722F90020FFF7D2
:102728001FF98C20FFF71CF90020FFF719F9AC20DE
:10273800FFF716F90020FFF713F9DC20FFF710F96F
:102748000020FFF70DF97020FFF70AF90020FFF7C6
:1027580007F99020FFF704F90020FFF701F9EB20B3
:10276800FFF7FEF80020FFF7FBF8DC20FFF7F8F88A
:102778000020FFF7F5F8B820FFF7E0F80020FFF792
:10278800EFF80020FFF7ECF80020FFF7E9F8002049
:10279800FFF7E6F80020FFF7E3F80020FFF7E0F87E
:1027A8000020FFF7DDF80020FFF7DAF8BA20FFF77E
:1027B800C5F82420FFF7D4F80020FFF7D1F800204F
:1027C800FFF7CEF80020FFF7CBF8C120FFF7B6F8E7
:1027D8002020FFF7C5F80020FFF7C2F85420FFF7C4
:1027E800BFF80020FFF7BCF8FF20FFF7B9F800207A
:1027F800FFF7B6F8C220FFF7A1F80A20FFF7B0F8F4
:102808000020FFF7ADF80420FFF7AAF80020FFF733
:10281800A7F8C320FFF792F83C20FFF7A1F80020A3
:10282800FFF79EF83A20FFF79BF80020FFF798F88B
:102838003920FFF795F80020FFF792F83720FFF7C7
:102848008FF80020FFF78CF83C20FFF789F800206C
:10285800FFF786F83620FFF783F80020FFF780F8A7
:102868003220FFF77DF80020FFF77AF82F20FFF7D6
:1028780077F80020FFF774F82C20FFF771F8002094
:10288800FFF76EF82920FFF76BF80020FFF768F8CC
:102898002620FFF765F80020FFF762F82420FFF7ED
:1028A8005FF80020FFF75CF82420FFF759F80020B4
:1028B800FFF756F82320FFF753F80020FFF750F8EA
:1028C8003C20FFF74DF80020FFF74AF83620FFF7C5
:1028D80047F80020FFF744F83220FFF741F80020BE
:1028E800FFF73EF82F20FFF73BF80020FFF738F8F6
:1028F8002C20FFF735F80020FFF732F82920FFF7E2
:102908002FF80020FFF72CF82620FFF729F80020E1
:10291800FFF726F82420FFF723F80020FFF720F818
:102928002420FFF71DF80020FFF71AF82320FFF7EF
:1029380017F80020FFF714F8C420FEF7FFFF622005
:10294800FFF70EF80020FFF70BF80520FFF708F84F
:102958000020FFF705F88420FFF702F80020FEF7B3
:10296800FFFFF020FEF7FCFF0020FEF7F9FF18201C
:10297800FEF7F6FF0020FEF7F3FFA420FEF7F0FFB6
:102988000020FEF7EDFF1820FEF7EAFF0020FEF713
:10299800E7FF5020FEF7E4FF0020FEF7E1FF0C20E0
:1029A800FEF7DEFF0020FEF7DBFF1720FEF7D8FF5B
:1029B8000020FEF7D5FF9520FEF7D2FF0020FEF796
:1029C800CFFFF320FEF7CCFF0020FEF7C9FFE6207B
:1029D800FEF7C6FF0020FEF7C3FFC520FEF7AEFFD7
:1029E8003220FEF7BDFF0020FEF7BAFF4420FEF7B5
:1029F800B7FF0020FEF7B4FF6520FEF7B1FF002007
:102A0800FEF7AEFF7620FEF7ABFF0020FEF7A8FF2B
:102A18008820FEF7A5FF0020FEF7A2FFC620FEF7DC
:102A28008DFF2020FEF79CFF0020FEF799FF17205E
:102A3800FEF796FF0020FEF793FF0120FEF790FFB8
:102A48000020FEF78DFFC720FEF778FF0020FEF775
:102A580087FF0020FEF784FF0020FEF781FF00209B
:102A6800FEF77EFFC820FEF769FF0020FEF778FF1B
:102A78000020FEF775FF0020FEF772FF0020FEF72A
:102A88006FFFC920FEF75AFF0020FEF769FF0020FC
:102A9800FEF766FF0020FEF763FF0020FEF760FFE9
:102AA8000020FEF75DFF0020FEF75AFF0020FEF72A
:102AB80057FF0020FEF754FF0020FEF751FF0020CB
:102AC800FEF74EFF0020FEF74BFF0020FEF748FF01
:102AD8000020FEF745FF0020FEF742FF0020FEF72A
:102AE8003FFF0020FEF73CFFE020FEF727FF1620FF
:102AF800FEF736FF0020FEF733FF1C20FEF730FFFD
:102B08000020FEF72DFF2120FEF72AFF0020FEF708
:102B180027FF3620FEF724FF0020FEF721FF46207E
:102B2800FEF71EFF0020FEF71BFF5220FEF718FFDE
:102B38000020FEF715FF6420FEF712FF0020FEF7C5
:102B48000FFF7A20FEF70CFF0020FEF709FF8B200D
:102B5800FEF706FF0020FEF703FF9920FEF700FFAF
:102B68000020FEF7FDFEA820FEF7FAFE0020FEF783
:102B7800F7FEB920FEF7F4FE0020FEF7F1FEC420B0
:102B8800FEF7EEFE0020FEF7EBFECA20FEF7E8FE99
:102B98000020FEF7E5FED220FEF7E2FE0020FEF759
:102BA800DFFED920FEF7DCFE0020FEF7D9FEE0208C
:102BB800FEF7D6FE0020FEF7D3FEF320FEF7D0FE88
:102BC8000020FEF7CDFEE120FEF7B8FE1620FEF746
:102BD800C7FE0020FEF7C4FE1C20FEF7C1FE002041
:102BE800FEF7BEFE2220FEF7BBFE0020FEF7B8FE71
:102BF8003620FEF7B5FE0020FEF7B2FE4520FEF7B0
:102C0800AFFE0020FEF7ACFE5220FEF7A9FE002022
:102C1800FEF7A6FE6420FEF7A3FE0020FEF7A0FE46
:102C28007A20FEF79DFE0020FEF79AFE8B20FEF725
:102C380097FE0020FEF794FE9920FEF791FE0020F3
:102C4800FEF78EFEA820FEF78BFE0020FEF788FE1A
:102C5800B920FEF785FE0020FEF782FEC420FEF7AD
:102C68007FFE0020FEF77CFECA20FEF779FE0020DA
:102C7800FEF776FED220FEF773FE0020FEF770FE08
:102C8800D820FEF76DFE0020FEF76AFEE020FEF772
:102C980067FE0020FEF764FEF320FEF761FE0020C9
:102CA800FEF75EFEE220FEF749FE0520FEF758FE1D
:102CB8000020FEF755FE0B20FEF752FE0020FEF71F
:102CC8004FFE1B20FEF74CFE0020FEF749FE342085
:102CD800FEF746FE0020FEF743FE4420FEF740FEC6
:102CE8000020FEF73DFE4F20FEF73AFE0020FEF7DB
:102CF80037FE6120FEF734FE0020FEF731FE792012
:102D0800FEF72EFE0020FEF72BFE8820FEF728FE99
:102D18000020FEF725FE9720FEF722FE0020FEF792
:102D28001FFEA620FEF71CFE0020FEF719FEB720A6
:102D3800FEF716FE0020FEF713FEC220FEF710FE77
:102D48000020FEF70DFEC720FEF70AFE0020FEF762
:102D580007FED120FEF704FE0020FEF701FED62074
:102D6800FEF7FEFD0020FEF7FBFDDD20FEF7F8FD77
:102D78000020FEF7F5FDF320FEF7F2FD0020FEF738
:102D8800EFFDE320FEF7DAFD0520FEF7E9FD002060
:102D9800FEF7E6FD0A20FEF7E3FD0020FEF7E0FD62
:102DA8001C20FEF7DDFD0020FEF7DAFD3320FEF7DC
:102DB800D7FD0020FEF7D4FD4420FEF7D1FD00200A
:102DC800FEF7CEFD5020FEF7CBFD0020FEF7C8FD34
:102DD8006220FEF7C5FD0020FEF7C2FD7820FEF751
:102DE800BFFD0020FEF7BCFD8820FEF7B9FD0020DE
:102DF800FEF7B6FD9720FEF7B3FD0020FEF7B0FD05
:102E0800A620FEF7ADFD0020FEF7AAFDB720FEF7CD
:102E1800A7FD0020FEF7A4FDC220FEF7A1FD0020BB
:102E2800FEF79EFDC720FEF79BFD0020FEF798FDEC
:102E3800D120FEF795FD0020FEF792FDD520FEF784
:102E48008FFD0020FEF78CFDDD20FEF789FD0020B8
:102E5800FEF786FDF320FEF783FD0020FEF780FDD8
:102E6800E420FEF76BFD0120FEF77AFD0020FEF757
:102E780077FD0120FEF774FD0020FEF771FD0220AA
:102E8800FEF76EFD0020FEF76BFD2A20FEF768FDB9
:102E98000020FEF765FD3C20FEF762FD0020FEF7EE
:102EA8005FFD4B20FEF75CFD0020FEF759FD5D201D
:102EB800FEF756FD0020FEF753FD7420FEF750FD87
:102EC8000020FEF74DFD8420FEF74AFD0020FEF7A6
:102ED80047FD9320FEF744FD0020FEF741FDA220A8
:102EE800FEF73EFD0020FEF73BFDB320FEF738FD60
:102EF8000020FEF735FDBE20FEF732FD0020FEF76C
:102F08002FFDC420FEF72CFD0020FEF729FDCD2063
:102F1800FEF726FD0020FEF723FDD320FEF720FD57
:102F28000020FEF71DFDDD20FEF71AFD0020FEF74C
:102F380017FDF320FEF714FD0020FEF711FDE52034
:102F4800FEF7FCFC0020FEF70BFD0020FEF708FD55
:102F58000020FEF705FD0020FEF702FD0220FEF727
:102F6800FFFC0020FEF7FCFC2920FEF7F9FC0020FE
:102F7800FEF7F6FC3C20FEF7F3FC0020FEF7F0FC21
:102F88004B20FEF7EDFC0020FEF7EAFC5D20FEF783
:102F9800E7FC0020FEF7E4FC7420FEF7E1FC0020CB
:102FA800FEF7DEFC8420FEF7DBFC0020FEF7D8FCF1
:102FB8009320FEF7D5FC0020FEF7D2FCA220FEF7F6
:102FC800CFFC0020FEF7CCFCB320FEF7C9FC0020A4
:102FD800FEF7C6FCBE20FEF7C3FC0020FEF7C0FCCF
:102FE800C420FEF7BDFC0020FEF7BAFCCD20FEF79A
:102FF800B7FC0020FEF7B4FCD320FEF7B1FC00209C
:10300800FEF7AEFCDC20FEF7ABFC0020FEF7A8FCC8
:10301800F320FEF7A5FC0020FEF7A2FCE620FEF751
:103028008DFC1120FEF79CFC0020FEF799FC342053
:10303800FEF796FC0020FEF793FC5620FEF790FC66
:103048000020FEF78DFC7620FEF78AFC0020FEF7B4
:1030580087FC7720FEF784FC0020FEF781FC6620C1
:10306800FEF77EFC0020FEF77BFC8820FEF778FC4C
:103078000020FEF775FC9920FEF772FC0020FEF791
:103088006FFCBB20FEF76CFC0020FEF769FC992062
:10309800FEF766FC0020FEF763FC6620FEF760FC86
:1030A8000020FEF75DFC5520FEF75AFC0020FEF7D5
:1030B80057FC5520FEF754FC0020FEF751FC452034
:1030C800FEF74EFC0020FEF74BFC4320FEF748FCC1
:1030D8000020FEF745FC4420FEF742FC0020FEF7E6
:1030E8003FFCE720FEF72AFC3220FEF739FC0020DF
:1030F800FEF736FC5520FEF733FC0020FEF730FCC7
:103108007620FEF72DFC0020FEF72AFC6620FEF74D
:1031180027FC0020FEF724FC6720FEF721FC002096
:10312800FEF71EFC6720FEF71BFC0020FEF718FCCC
:103138008720FEF715FC0020FEF712FC9920FEF709
:103148000FFC0020FEF70CFCBB20FEF709FC00205A
:10315800FEF706FC9920FEF703FC0020FEF700FCB2
:103168007720FEF7FDFB0020FEF7FAFB4420FEF770
:10317800F7FB0020FEF7F4FB5620FEF7F1FB0020DA
:10318800FEF7EEFB2320FEF7EBFB0020FEF7E8FB43
:103198003320FEF7E5FB0020FEF7E2FB4520FEF7B3
:1031A800DFFB0020FEF7DCFBE820FEF7C7FB002072
:1031B800FEF7D6FB0020FEF7D3FB9920FEF7D0FBE5
:1031C8000020FEF7CDFB8720FEF7CAFB0020FEF7A4
:1031D800C7FB8820FEF7C4FB0020FEF7C1FB772061
:1031E800FEF7BEFB0020FEF7BBFB6620FEF7B8FB30
:1031F8000020FEF7B5FB8820FEF7B2FB0020FEF7A3
:10320800AFFBAA20FEF7ACFB0020FEF7A9FBBB2012
:10321800FEF7A6FB0020FEF7A3FB9920FEF7A0FB14
:103228000020FEF79DFB6620FEF79AFB0020FEF7C4
:1032380097FB5520FEF794FB0020FEF791FB5520E5
:10324800FEF78EFB0020FEF78BFB4420FEF788FB81
:103258000020FEF785FB4420FEF782FB0020FEF7E6
:103268007FFB5520FEF77CFB0020FEF779FBE92069
:10327800FEF764FBAA20FEF773FB0020FEF770FB45
:103288000020FEF76DFB0020FEF76AFB0020FEF72A
:1032980055FBAA20FEF764FBCF20FEF74FFB00206A
:1032A800FEF75EFB0020FEF75BFB0020FEF758FBF5
:1032B8000020FEF755FB0020FEF752FB0020FEF72A
:1032C8004FFB0020FEF74CFB0020FEF749FB0020D7
:1032D800FEF746FB0020FEF743FB0020FEF740FB0D
:1032E8000020FEF73DFB0020FEF73AFB0020FEF72A
:1032F80037FB0020FEF734FB0020FEF731FB0020EF
:10330800FEF72EFBF020FEF719FB0020FEF728FB46
:103318005020FEF725FB0020FEF722FB0020FEF7D9
:103328001FFB0020FEF71CFBF320FEF707FB002025
:10333800FEF716FBF920FEF701FB0620FEF710FB4F
:103348001020FEF70DFB2920FEF70AFB0020FEF7F0
:1033580007FB3A20FEF7F2FA5520FEF701FB112091
:10336800FEF7ECFA642002F09BF82920FEF7E6FA53
:103378003520FEF7E3FA0020FEF7F2FA5120FEF7B7
:10338800DDFAFF20FEF7ECFA5320FEF7D7FA2C20DF
:10339800FEF7E6FA5520FEF7D1FA8220FEF7E0FAAA
:1033A8002C20FEF7CBFAFEF702BE55214FF47040F1
:1033B800FEF7F6FAAA214FF20100FEF7F1FA5221C0
:1033C8004FF20200FEF7ECFA08214FF20300FEF775
:1033D800E7FA01214FF20400FEF7E2FA0D214FF45B
:1033E8003040FEF7DDFA0D214BF20100FEF7D8FA66
:1033F8000D214BF20200FEF7D3FA34214FF4364088
:10340800FEF7CEFA34214BF20160FEF7C9FA3421F7
:103418004BF20260FEF7C4FA0D214FF43140FEF77B
:10342800BFFA0D214BF20110FEF7BAFA0D214BF24B
:103438000210FEF7B5FA34214FF43740FEF7B0FA20
:1034480034214BF20170FEF7ABFA34214BF20270D3
:10345800FEF7A6FA00214FF43240FEF7A1FA002148
:103468004BF20120FEF79CFA00214BF20220FEF7F6
:1034780097FA24214FF43840FEF792FA24214BF6AC
:103488000100FEF78DFA24214BF60200FEF788FAB8
:1034980001214FF43F40FEF783FA0F214FF43340E8
:1034A800FEF77EFA0F214BF20130FEF779FA0F2171
:1034B8004BF20230FEF774FA34214FF43940FEF72C
:1034C8006FFA34214BF60110FEF76AFA34214BF6F5
:1034D8000210FEF765FA08214FF43540FEF760FA4E
:1034E80008214BF20150FEF75BFA08214BF202501B
:1034F800FEF756FA03214FF44240FEF751FA242111
:103508004FF43A40FEF74CFA24214BF60120FEF71F
:1035180047FA24214BF60220FEF742FA00214FF425
:103528003C40FEF73DFA78214BF60140FEF738FAA9
:1035380000214BF60240FEF733FA00214FF43D40DC
:10354800FEF72EFA78214BF60150FEF729FA0021F2
:103558004BF60250FEF724FA00214FF43E40FEF7E6
:103568001FFA64214BF60160FEF71AFA00214FF4A6
:103578005140FEF715FA33214DF20110FEF710FA0B
:1035880000214DF20210FEF70BFA34214DF2031020
:10359800FEF706FA00214DF20410FEF701FA3A216F
:1035A8004DF20510FEF7FCF900214DF20610FEF76A
:1035B800F7F94A214DF20710FEF7F2F900214DF212
:1035C8000810FEF7EDF95C214DF20910FEF7E8F955
:1035D80000214DF20A10FEF7E3F981214DF20B109C
:1035E800FEF7DEF900214DF20C10FEF7D9F9A621FD
:1035F8004DF20D10FEF7D4F900214DF20E10FEF732
:10360800CFF9E5214DF20F10FEF7CAF901214DF26D
:103618001010FEF7C5F913214DF21110FEF7C0F98D
:1036280001214DF21210FEF7BBF954214DF213108F
:10363800FEF7B6F901214DF21410FEF7B1F9822117
:103648004DF21510FEF7ACF901214DF21610FEF7F8
:10365800A7F9CA214DF21710FEF7A2F902214DF27F
:103668001810FEF79DF900214DF21910FEF798F990
:1036780002214DF21A10FEF793F901214DF21B10A9
:10368800FEF78EF902214DF21C10FEF789F934215C
:103698004DF21D10FEF784F902214DF21E10FEF7BF
:1036A8007FF967214DF21F10FEF77AF902214DF2DA
:1036B8002010FEF775F984214DF22110FEF770F9FC
:1036C80002214DF22210FEF76BF9A4214DF22310CE
:1036D800FEF766F902214DF22410FEF761F9B721D1
:1036E8004DF22510FEF75CF902214DF22610FEF787
:1036F80057F9CF214DF22710FEF752F902214DF26A
:103708002810FEF74DF9DE214DF22910FEF748F991
:1037180002214DF22A10FEF743F9F2214DF22B1047
:10372800FEF73EF902214DF22C10FEF739F9FE2181
:103738004DF22D10FEF734F903214DF22E10FEF74D
:103748002FF910214DF22F10FEF72AF903214DF21F
:103758003010FEF725F933214DF23110FEF720F92C
:1037680003214DF23210FEF71BF96D214DF2331093
:10377800FEF716F900214FF45240FEF711F93321F4
:103788004DF20120FEF70CF900214DF20220FEF760
:1037980007F934214DF20320FEF702F900214DF21A
:1037A8000420FEF7FDF83A214DF20520FEF7F8F85F
:1037B80000214DF20620FEF7F3F84A214DF20720CA
:1037C800FEF7EEF800214DF20820FEF7E9F85C213B
:1037D8004DF20920FEF7E4F800214DF20A20FEF729
:1037E800DFF881214DF20B20FEF7DAF800214DF2C7
:1037F8000C20FEF7D5F8A6214DF20D20FEF7D0F8E3
:1038080000214DF20E20FEF7CBF8E5214DF20F20F6
:10381800FEF7C6F801214DF21020FEF7C1F813217A
:103828004DF21120FEF7BCF801214DF21220FEF7EF
:10383800B7F854214DF21320FEF7B2F801214DF2EA
:103848001420FEF7ADF882214DF21520FEF7A8F8F6
:1038580001214DF21620FEF7A3F8CA214DF21720D8
:10386800FEF79EF802214DF21820FEF799F8002184
:103878004DF21920FEF794F802214DF21A20FEF7B6
:103888008FF801214DF21B20FEF78AF802214DF234
:103898001C20FEF785F834214DF21D20FEF780F834
:1038A80002214DF21E20FEF77BF867214DF21F2002
:1038B800FEF776F802214DF22020FEF771F88421F8
:1038C8004DF22120FEF76CF802214DF22220FEF77E
:1038D80067F8A4214DF22320FEF762F802214DF289
:1038E8002420FEF75DF8B7214DF22520FEF758F8A1
:1038F80002214DF22620FEF753F8CF214DF2272062
:10390800FEF74EF802214DF22820FEF749F8DE2195
:103918004DF22920FEF744F802214DF22A20FEF745
:103928003FF8F2214DF22B20FEF73AF802214DF232
:103938002C20FEF735F8FE214DF22D20FEF730F849
:1039480003214DF22E20FEF72BF810214DF22F20E7
:10395800FEF726F803214DF23020FEF721F8332137
:103968004DF23120FEF71CF803214DF23220FEF70C
:1039780017F86D214DF23320FEF712F800214FF4AD
:103988005340FEF70DF833214DF20130FEF708F8E9
:1039980000214DF20230FEF703F834214DF20330D6
:1039A800FDF7FEFF00214DF20430FDF7F9FF3A2143
:1039B8004DF20530FDF7F4FF00214DF20630FDF71A
:1039C800EFFF4A214DF20730FDF7EAFF00214DF2E3
:1039D8000830FDF7E5FF5C214DF20930FDF7E0FF07
:1039E80000214DF20A30FDF7DBFF81214DF20B304B
:1039F800FDF7D6FF00214DF20C30FDF7D1FFA621CF
:103A08004DF20D30FDF7CCFF00214DF20E30FDF7E1
:103A1800C7FFE5214DF20F30FDF7C2FF01214DF23E
:103A28001030FDF7BDFF13214DF21130FDF7B8FF3F
:103A380001214DF21230FDF7B3FF54214DF213303E
:103A4800FDF7AEFF01214DF21430FDF7A9FF8221E9
:103A58004DF21530FDF7A4FF01214DF21630FDF7A8
:103A68009FFFCA214DF21730FDF79AFF02214DF250
:103A78001830FDF795FF00214DF21930FDF790FF42
:103A880002214DF21A30FDF78BFF01214DF21B3058
:103A9800FDF786FF02214DF21C30FDF781FF34212E
:103AA8004DF21D30FDF77CFF02214DF21E30FDF76F
:103AB80077FF67214DF21F30FDF772FF02214DF2AB
:103AC8002030FDF76DFF84214DF22130FDF768FFAE
:103AD80002214DF22230FDF763FFA4214DF223307D
:103AE800FDF75EFF02214DF22430FDF759FFB721A3
:103AF8004DF22530FDF754FF02214DF22630FDF737
:103B08004FFFCF214DF22730FDF74AFF02214DF23A
:103B18002830FDF745FFDE214DF22930FDF740FF43
:103B280002214DF22A30FDF73BFFF2214DF22B30F6
:103B3800FDF736FF02214DF22C30FDF731FFFE2153
:103B48004DF22D30FDF72CFF03214DF22E30FDF7FD
:103B580027FF10214DF22F30FDF722FF03214DF2F0
:103B68003030FDF71DFF33214DF23130FDF718FFDE
:103B780003214DF23230FDF713FF6D214DF2333042
:103B8800FDF70EFF00214FF45440FDF709FF3321E4
:103B98004DF20140FDF704FF00214DF20240FDF710
:103BA800FFFE34214DF20340FDF7FAFE00214DF2ED
:103BB8000440FDF7F5FE3A214DF20540FDF7F0FE11
:103BC80000214DF20640FDF7EBFE4A214DF2074079
:103BD800FDF7E6FE00214DF20840FDF7E1FE5C210D
:103BE8004DF20940FDF7DCFE00214DF20A40FDF7D9
:103BF800D7FE81214DF20B40FDF7D2FE00214DF298
:103C08000C40FDF7CDFEA6214DF20D40FDF7C8FE94
:103C180000214DF20E40FDF7C3FEE5214DF20F40A5
:103C2800FDF7BEFE01214DF21040FDF7B9FE13214C
:103C38004DF21140FDF7B4FE01214DF21240FDF79F
:103C4800AFFE54214DF21340FDF7AAFE01214DF2BB
:103C58001440FDF7A5FE82214DF21540FDF7A0FEA8
:103C680001214DF21640FDF79BFECA214DF2174087
:103C7800FDF796FE02214DF21840FDF791FE002156
:103C88004DF21940FDF78CFE02214DF21A40FDF766
:103C980087FE01214DF21B40FDF782FE02214DF205
:103CA8001C40FDF77DFE34214DF21D40FDF778FEE6
:103CB80002214DF21E40FDF773FE67214DF21F40B1
:103CC800FDF76EFE02214DF22040FDF769FE8421CA
:103CD8004DF22140FDF764FE02214DF22240FDF72E
:103CE8005FFEA4214DF22340FDF75AFE02214DF25A
:103CF8002440FDF755FEB7214DF22540FDF750FE53
:103D080002214DF22640FDF74BFECF214DF2274010
:103D1800FDF746FE02214DF22840FDF741FEDE2167
:103D28004DF22940FDF73CFE02214DF22A40FDF7F5
:103D380037FEF2214DF22B40FDF732FE02214DF203
:103D48002C40FDF72DFEFE214DF22D40FDF728FEFB
:103D580003214DF22E40FDF723FE10214DF22F4096
:103D6800FDF71EFE03214DF23040FDF719FE332109
:103D78004DF23140FDF714FE03214DF23240FDF7BC
:103D88000FFE6D214DF23340FDF70AFE00214FF47E
:103D98005540FDF705FE33214DF20150FDF700FEB9
:103DA80000214DF20250FDF7FBFD34214DF2035086
:103DB800FDF7F6FD00214DF20450FDF7F1FD3A2123
:103DC8004DF20550FDF7ECFD00214DF20650FDF7D0
:103DD800E7FD4A214DF20750FDF7E2FD00214DF2C3
:103DE8000850FDF7DDFD5C214DF20950FDF7D8FDC7
:103DF80000214DF20A50FDF7D3FD81214DF20B5001
:103E0800FDF7CEFD00214DF20C50FDF7C9FDA621AE
:103E18004DF20D50FDF7C4FD00214DF20E50FDF797
:103E2800BFFDE5214DF20F50FDF7BAFD01214DF21E
:103E38001050FDF7B5FD13214DF21150FDF7B0FDFF
:103E480001214DF21250FDF7ABFD54214DF21350F4
:103E5800FDF7A6FD01214DF21450FDF7A1FD8221C9
:103E68004DF21550FDF79CFD01214DF21650FDF75E
:103E780097FDCA214DF21750FDF792FD02214DF230
:103E88001850FDF78DFD00214DF21950FDF788FD02
:103E980002214DF21A50FDF783FD01214DF21B500E
:103EA800FDF77EFD02214DF21C50FDF779FD34210E
:103EB8004DF21D50FDF774FD02214DF21E50FDF725
:103EC8006FFD67214DF21F50FDF76AFD02214DF28B
:103ED8002050FDF765FD84214DF22150FDF760FD6E
:103EE80002214DF22250FDF75BFDA4214DF2235033
:103EF800FDF756FD02214DF22450FDF751FDB72183
:103F08004DF22550FDF74CFD02214DF22650FDF7EC
:103F180047FDCF214DF22750FDF742FD02214DF21A
:103F28002850FDF73DFDDE214DF22950FDF738FD03
:103F380002214DF22A50FDF733FDF2214DF22B50AC
:103F4800FDF72EFD02214DF22C50FDF729FDFE2133
:103F58004DF22D50FDF724FD03214DF22E50FDF7B3
:103F68001FFD10214DF22F50FDF71AFD03214DF2D0
:103F78003050FDF715FD33214DF23150FDF710FD9E
:103F880003214DF23250FDF70BFD6D214DF23350F8
:103F9800FDF706FD00214FF45640FDF701FD3321E2
:103FA8004DF20160FDF7FCFC00214DF20260FDF7C7
:103FB800F7FC34214DF20360FDF7F2FC00214DF2CD
:103FC8000460FDF7EDFC3A214DF20560FDF7E8FCD1
:103FD80000214DF20660FDF7E3FC4A214DF207602F
:103FE800FDF7DEFC00214DF20860FDF7D9FC5C21ED
:103FF8004DF20960FDF7D4FC00214DF20A60FDF78F
:10400800CFFC81214DF20B60FDF7CAFC00214DF277
:104018000C60FDF7C5FCA6214DF20D60FDF7C0FC54
:1040280000214DF20E60FDF7BBFCE5214DF20F605B
:10403800FDF7B6FC01214DF21060FDF7B1FC13212C
:104048004DF21160FDF7ACFC01214DF21260FDF755
:10405800A7FC54214DF21360FDF7A2FC01214DF29B
:104068001460FDF79DFC82214DF21560FDF798FC68
:1040780001214DF21660FDF793FCCA214DF217603D
:10408800FDF78EFC02214DF21860FDF789FC002136
:104098004DF21960FDF784FC02214DF21A60FDF71C
:1040A8007FFC01214DF21B60FDF77AFC02214DF2E5
:1040B8001C60FDF775FC34214DF21D60FDF770FCA6
:1040C80002214DF21E60FDF76BFC67214DF21F6067
:1040D800FDF766FC02214DF22060FDF761FC8421AA
:1040E8004DF22160FDF75CFC02214DF22260FDF7E4
:1040F80057FCA4214DF22360FDF752FC02214DF23A
:104108002460FDF74DFCB7214DF22560FDF748FC12
:1041180002214DF22660FDF743FCCF214DF22760C6
:10412800FDF73EFC02214DF22860FDF739FCDE2147
:104138004DF22960FDF734FC02214DF22A60FDF7AB
:104148002FFCF2214DF22B60FDF72AFC02214DF2E3
:104158002C60FDF725FCFE214DF22D60FDF720FCBB
:1041680003214DF22E60FDF71BFC10214DF22F604C
:10417800FDF716FC03214DF23060FDF711FC3321E9
:104188004DF23160FDF70CFC03214DF23260FDF772
:1041980007FC6D214DF23360FDF702FC55214FF409
:1041A8007040FDF7FDFBAA214FF20100FDF7F8FB77
:1041B80052214FF20200FDF7F3FB08214FF20300F2
:1041C800FDF7EEFB00214FF20400FDF7E9FBCC21DF
:1041D8004FF43140FDF7E4FB00214BF20110FDF7ED
:1041E800DFFB05214FF43640FDF7DAFB70214FF471
:1041F8003740FDF7D5FB70214BF20170FDF7D0FB7E
:1042080001214FF43840FDF7CBFB03214BF60100A9
:10421800FDF7C6FB03214BF60200FDF7C1FB0321A6
:104228004BF60300FDF7BCFB02214FF43C40FDF7C1
:10423800B7FB00214BF60140FDF7B2FB00214BF61E
:104248000240FDF7ADFBD0214FF44940FDF7A8FB34
:1042580002214CF60110FDF7A3FB50214CF6021089
:10426800FDF79EFB50214CF60310FDF799FB5021FA
:104278004CF60410FDF794FB00214FF45450FDF761
:104288008FFB55214FF46850FDF78AFB4FF4885097
:10429800FDF754FB012001F003F94FF42450FDF71A
:1042A8004DFBFDF784BEE220FDF748FB1D20FDF71E
:1042B80057FB0220FDF754FB0420FDF751FB0120BA
:1042C80001F0EEF8E020FDF739FB0120FDF748FB8F
:1042D8000A2001F0E5F8E020FDF730FB0320FDF7A8
:1042E8003FFB0C2001F0DCF80120FDF727FB0A203A
:1042F80001F0D6F8E620FDF721FB2F20FDF730FB73
:10430800FF20FDF72DFBFF20FDF72AFBB020FDF76E
:1043180015FB2020FDF724FB0020FDF721FB0320DF
:10432800FDF71EFB40F21F30FDF71AFB0120FDF7D9
:1043380017FB40F2DF10FDF713FB0020FDF710FB21
:10434800B420FDF7FBFA0420FDF70AFB40F21F40FA
:10435800FDF706FB0020FDF703FB2E20FDF700FB11
:104368000020FDF7FDFA0020FDF7FAFA0020FDF71E
:10437800F7FA0020FDF7F4FAB620FDF7DFFA02207D
:10438800FDF7EEFA4FF40370FDF7EAFA0020FDF7A7
:10439800E7FA1720FDF7E4FA1520FDF7E1FA002007
:1043A800FDF7DEFA0020FDF7DBFAF020FDF7C6FA8C
:1043B8000320FDF7D5FA2920FDF7C0FAD020FDF734
:1043C800BDFA0020FDF7CCFABE20FDF7B7FA0520AC
:1043D800FDF7C6FAFE20FDF7C3FA0120FDF7C0FA83
:1043E8000020FDF7BDFA0020FDF7BAFA0020FDF71E
:1043F800B7FAB820FDF7A2FA0320FDF7B1FA0120B9
:10440800FDF7AEFABA20FDF799FA0120FDF7A8FAF0
:104418006420FDF7C5FCFDF7CABD00BF2DE9F041DA
:1044280007460E469846BDF81850141AA4B201342F
:10443800A4B208E00A4BA3F80051013292B2A2429A
:10444800F8D30136B6B2464507D831463846FDF7A7
:10445800B9FAFDF7ADFA0022F1E7BDE8F08100BF37
:104468000007006C2DE9F04F83B0824688461F464E
:104478009DF830B013F0070318BF012303EBD703EF
:10448800790801FB03F3DBB20093203AD3B201931E
:1044980044464FF000093FE0019B03EB4303294AE0
:1044A80002EB830313F8095047E0274B019A03EB0B
:1044B800021313F8095040E0244B1A88214650464D
:1044C800FDF7F2FB6D00EDB20134A4B2204B5B881E
:1044D800A34234D9A4EB0803BB4210D00136F6B28C
:1044E800072E15D815F0800FE6D1BBF1000FE9D1E2
:1044F800184B1A8821465046FDF7D6FBE2E70AF129
:10450800010A1FFA8AFA124B1B88534517D94446E9
:1045180009F101095FFA89F9009B99450FD20C2F1F
:10452800BAD0102FC1D0182F09D1019B03EBC303B8
:10453800094A02EB830313F809500026D0E703B0B9
:10454800BDE8F08F782F0108EC330108080000203F
:10455800B00A002004000020DC39010802460120CE
:1045680002E002FB00F019464B1EDBB20029F8D12D
:10457800704700002DE9F04782B082468946904690
:104588001D469DF8286000273C4619E0700800FB8E
:1045980004A00023009333462022494680B2FFF747
:1045A80061FF0BE07008303200FB04A00023009389
:1045B8003346D2B2494680B2FFF754FF0134E4B221
:1045C800AC421CD2291BC9B20139C9B20A20FFF773
:1045D800C5FFB8FBF0F00B4AA2FB003C4FEADC0C2D
:1045E8000CEB8C0CA0EB4C0C5FFA8CF2002FD9D1A1
:1045F8006B1E9C42D6DA002AC8D00127D2E702B047
:10460800BDE8F087CDCCCCCC2DE9F04782B082460E
:104618000D469DF828700B9E02441FFA82F90B4440
:104628001FFA83F804460CE0454517D2002300938F
:104638003B4629462046FFF715FF04EB5704A4B272
:1046480001363278A2F12003DBB25E2B06D84C4546
:10465800EAD35FFA8AF43D44ADB2E5E702B0BDE8BB
:10466800F08772B6FEE700B591B02822002106A8AF
:1046780006F0B8FC00230193029303930493059377
:10468800012206924FF4803307930A9202220D9278
:104698000E934FF4E0130F9306A801F065FB80B961
:1046A8000F23019302210291002303934FF48062A8
:1046B8000492059301A801F097FD20B911B05DF8A7
:1046C80004FBFFF7CEFFFFF7CCFF00002DE9F04118
:1046D80088B000F0C1FEFFF7C6FFFDF72FF8FCF722
:1046E800AFFF00F0FBFB00F0C1FAFCF73BFF00F066
:1046F8000FFC03F0F9FE00F017FB002000F08AF928
:1047080005F010FF9A4C01229A49206805F0C2FB77
:1047180001229949606805F0BDFB984800F036FA17
:10472800322000F0BDFEFDF709FC954B4FF47842AE
:104738001A6005AD934B9A889349284606F0E6FD22
:104748000023029310240194904B00932346C8221F
:104758001E21084606F094FB8D4B019300942346D6
:10476800C82246211E20FFF74FFF019500942346DB
:10477800C8226E211E20FFF747FF864B01930C23AA
:104788000093C82282211E20FFF73EFF082182489D
:1047980001F0BEFA0128F9D0794B4FF478421A603B
:1047A8002AE07E4B019310230093C8226E211E201D
:1047B800FFF72AFFC82000F073FE4FF6FF7300933F
:1047C8007E23DC226E211420FFF728FEC82000F08B
:1047D80067FE002CE5D1724B019310230093C82289
:1047E8006E211E20FFF710FF40F2DC5000F058FE4B
:1047F8004FF6FF70FDF788FB06F072FA002840F0CC
:1048080091805F4E4FF47843336000250295102461
:104818000194644B00932346C82282211E2006F08F
:104828002FFB1F233360029501945F4B00932346AF
:10483800C82296211E2006F023FB029501945B4BAB
:1048480000932346C822AA211E2006F019FB0295D0
:104858000194574B00932346C822BE211E2006F020
:104868000FFB029518230193524A0092C822DC21BB
:104878001E2006F005FB81270026FF2FFBD08DF8B0
:1048880010701023009303233A4696217620FFF7F1
:1048980071FE402505E02021474801F046FA013520
:1048A800EDB2FD2D61D87F2DF9D001364FF01008FB
:1048B800CDF8008003232A46AA217620FFF75AFE66
:1048C800CDF8008005233246BE217620FFF752FE40
:1048D8008DF811500024009418230DEB0802DC21F8
:1048E800A22006F073FA009443460DEB0802F42167
:1048F800AE2006F06BFA00940C230DEB08024FF47F
:1049080082718A2006F062FAC8242346013CE4B288
:10491800002BC0D0012000F0C3FD0020FCF7B4FF3D
:104928000128F2D14FF6FF70FDF7EEFA144B4FF461
:1049380078421A60214B0193102400942346C82220
:1049480046211E20FFF760FE1D4B0193009423466D
:10495800C8225A211E20FFF757FE064B22466E2119
:10496800142005F075FF044633E70137FFB284E7EA
:1049780078C70020384701083C47010850B6002096
:1049880008000020B00A0020404701084C470108F1
:10499800604701086C470108001801409847010862
:1049A800AC470108C4470108CC470108E0470108A3
:1049B800F447010808480108000C0140784701083D
:1049C8008447010800239C4600E001330B4A52F853
:1049D80020209A420AD9021D094951F8222032F8AA
:1049E8001320002AF1D00CF1010CEEE7642000FB43
:1049F8000CF0B0FBF2F0C0B2704700BF28480108C5
:104A08000C00002002E000F8011B1A46531E002A81
:104A1800F9D1704738B504460B4D031D0B4A52F8BF
:104A280020205200002155F82300FFF7EBFFA31CBC
:104A3800074A52F82420002155F82300FFF7E2FF27
:104A48002C440123237638BD0C0000202848010897
:104A58002048010870B504460E461F4B03441B7ED0
:104A680013B91D4B1B68984796B31C4B53F8245039
:104A7800B6FBF5FC05FB1C660EB10CF1010C184BDE
:104A880053F82430013B002103E000218C451AD063
:104A9800013B002B19DB221D0F4850F82220184635
:104AA80032F81320002AF0D10131EFE7221D0A491C
:104AB80051F82220C11822F811C001339C45F5D8BD
:104AC80005FB00F003E00023F8E74FF0FF3070BD6E
:104AD8004FF0FF30FBE700BF0C000020184801082A
:104AE8002848010838B5164B03441B7E8BB1154B7B
:104AF80053F820308B4220D9134B53F82030B1FBA8
:104B0800F3F1031D0E4A52F8233033F811500023F5
:104B18000FE00B4B1B68984701200DE0021D084C65
:104B280054F8222003EB010C4FF0000E22F81CE091
:104B38000133AB42F2DB002038BD0220FCE700BFA6
:104B48000C000020204801081848010849B108B5A0
:104B58000B46811C034A52F82110591AFFF7C2FF6D
:104B680008BD70470C00002010B50446FFF772FF1F
:104B7800B0F1FF3F05D00234034B53F824301844FA
:104B880010BD0020FCE700BF0C00002008B5054B55
:104B98001860054B1868002302221946806806F041
:104BA800DDFA08BDE4B4002038000020022801D84E
:104BB8000120704708B506F0EBF9092303600020CF
:104BC80008BD000010B5013801280AD814464FF076
:104BD800FF3392B20748006802F021FE40B9204630
:104BE80010BD06F0D5F9092303604FF0FF30F7E751
:104BF8000520F5E7E4B40020022801D8002070471A
:104C080008B506F0C5F9092303604FF0FF3008BD69
:104C180008B506F0BDF9092303604FF0FF3008BD61
:104C280008B548B94FF0FF3301220848006802F080
:104C380062FE40B9012008BD06F0AAF90923036005
:104C48004FF0FF30F7E70520F5E700BFE4B4002098
:104C580008B5022804D84FF400534B60002008BD63
:104C680006F096F909230360F8E70000064B074AA7
:104C78001A6000225A609A60DA601A614FF4804222
:104C88005A6104229A617047E8B40020008001400C
:104C980030B589B0002304930593069307930268FF
:104CA8001E4B9A4201D009B030BD03F510435A6932
:104CB80042F480625A615A6902F480620192019A50
:104CC8009A6942F010029A619A6902F010020292FF
:104CD800029A9A6942F020029A619B6903F02003C4
:104CE8000393039B4FF4F85304930225059503247B
:104CF800079404A90A4800F0EBFE042304930595E1
:104D0800079404A9074800F0E3FE00221146312069
:104D180000F0ECFB312000F021FCC4E700800140EA
:104D2800001001400014014008B50D480D4B036008
:104D38004FF48273436000238360C360036143615F
:104D48004FF400728261C3610362436283620A2383
:104D5800C36202F0C3FA00B908BDFFF782FCFBE7A3
:104D68006CB500200038004010B586B000230293CF
:104D78000393049305930268174B9A4201D006B037
:104D880010BD03F5EC33DA6942F48042DA61DA697E
:104D980002F480420092009A9A6942F008029A61ED
:104DA8009B6903F008030193019B4FF4204302938E
:104DB8000223039303230593084C02A9204600F01D
:104DC80087FE4FF48043029300230393049302A9C0
:104DD800204600F07DFED2E700380040000C01407C
:104DE80082B00E4B9A6942F001029A619A6902F008
:104DF80001020092009ADA6942F08052DA61DB69B6
:104E080003F080530193019B054A536823F0E06344
:104E180043F00073536002B0704700BF00100240B7
:104E280000000140FEE7FEE7FEE7FEE7FEE7704709
:104E38007047704708B500F021FB08BD08B5024867
:104E480000F0D0FC08BD00BFC8B5002008B5024876
:104E580000F0C8FC08BD00BF0CB6002008B5024829
:104E680002F03EFE08BD00BF94B6002008B5024817
:104E780002F0D2F808BD00BFE8B400200120704756
:104E880008B506F085F8162303604FF0FF3008BD1B
:104E980008B54FF0FF31FFF7F3FFFEE708B503460B
:104EA8000B4A126842B10A4A106803446A469342A0
:104EB80006D8074A136008BD054A06491160F2E79B
:104EC80006F066F80C2303604FF0FF30F3E700BFED
:104ED800C4B50020F0C700207047000008B50A4894
:104EE8000A4B03604FF4E133436000238360C360DF
:104EF80003610C2242618361C36102F061FC00B965
:104F080008BDFFF7AEFBFBE750B6002000380140B4
:104F180008B50A480A4B03604FF4E13343600023A5
:104F28008360C36003610C2242618361C36102F044
:104F380047FC00B908BDFFF794FBFBE794B60020D7
:104F48000044004070B588B000230493059306938D
:104F580007930368464A934205D00446454A93425C
:104F68002BD008B070BD444B9A6942F480429A61D4
:104F78009A6902F480420092009A9A6942F0040207
:104F88009A619B6903F004030193019B4FF400733A
:104F980004930223059303230793384C04A920465E
:104FA80000F096FD4FF48063049300230593069365
:104FB80004A9204600F08CFDD3E72F4BDA6942F4B0
:104FC8000032DA61DA6902F400320292029A9A69CE
:104FD80042F004029A619B6903F004030393039B64
:104FE800042304930223059303230793234E04A960
:104FF800304600F06DFD08230493002505950695BD
:1050080004A9304600F064FD1D481E4B036045604E
:1050180085608023C360056145618561C56100F0D5
:10502800BFFAF0B9164BA3635C621748174B0360CD
:1050380010234360002383608022C26003614361C0
:105048008361C36100F0ACFA70B90F4B63635C62B3
:1050580000221146262000F049FA262000F07EFAA8
:105068007FE7FFF7FEFADDE7FFF7FBFAEDE700BFA2
:105078000038014000440040001002400008014090
:10508800C8B500206C0002400CB600208000024029
:1050980000B587B08DF80F004FF47A7300930123A1
:1050A8000DF117020DF10F01034802F072F99DF896
:1050B800170007B05DF804FB6CB5002038B502286E
:1050C80018D0032818D115240C4D00224FF4805114
:1050D800284600F024FE2046FFF7DAFFFF20FFF7FE
:1050E800D7FF044601224FF48051284600F017FEEE
:1050F800204638BD3524E7E70524E5E7000C0140E4
:1051080010B5084C00224FF48051204600F007FEED
:105118000620FFF7BDFF01224FF48051204600F022
:10512800FEFD10BD000C014070B5124E00224FF478
:105138008051304600F0F3FD9020FFF7A9FF0020D2
:10514800FFF7A6FF0020FFF7A3FF0020FFF7A0FF4F
:10515800FF20FFF79DFF0402A5B2FF20FFF798FF8D
:1051680084B22C4301224FF48051304600F0D7FD21
:10517800204670BD000C014010B501224FF480514B
:10518800114800F0CCFDFFF7CFFF104B18804EF60A
:105198001873984200D010BD0320FFF78FFF10F05E
:1051A800010FF8D1084C00224FF48051204600F03E
:1051B800B6FDB720FFF76CFF01224FF4805120465F
:1051C80000F0ADFDE7E700BF000C01402C00002017
:1051D80070B506460C46154600224FF48051164815
:1051E80000F09DFD0320FFF753FF144B1A884EF67D
:1051F80018739A420CD0C4F30740FFF749FFC4F371
:105208000720FFF745FFE0B2FFF742FF002409E05F
:10521800200EFFF73DFFEEE7FF20FFF739FF30557F
:105228000134A4B2AC42F7D301224FF480510248B2
:1052380000F075FD70BD00BF000C01402C0000207F
:1052480008B50120FFF73AFF10F0010FF9D108BDAA
:1052580070B506460C461546FFF752FF00224FF47C
:105268008051164800F05BFD0220FFF711FF144B38
:105278001A884EF618739A420CD0C4F30740FFF709
:1052880007FFC4F30720FFF703FFE0B2FFF700FFB3
:10529800002408E0200EFFF7FBFEEEE7305DFFF785
:1052A800F7FE0134A4B2AC42F8D301224FF4805186
:1052B800024800F034FDFFF7C3FF70BD000C014049
:1052C8002C000020F8B507460E461446CDB2C5F5A9
:1052D8008075ADB2954203D3154601E04FF4807551
:1052E8002A4631463846FFF7B3FFAC4208D02F4470
:1052F8002E44641BA4B2B4F5807FEFD82546EFE7AF
:10530800F8BD000010B50403FFF7FAFEFFF798FF99
:1053180000224FF48051124800F001FD2020FFF7D1
:10532800B7FE104B1A884EF618739A4214D0C4F37D
:105338000740FFF7ADFE200A00F0F000FFF7A8FED7
:105348000020FFF7A5FE01224FF48051044800F029
:10535800E6FCFFF775FF10BD200EFFF799FEE6E7A4
:10536800000C01402C0000202DE9F0470646894634
:1053780017464FEA1138C1F30B05C5F58054A4B29E
:10538800944204D3144602E04FF4805400254FEAB7
:10539800083A4FF4805251461B48FFF719FF002383
:1053A8009C4207D9EA181849525CFF2A02D10133F6
:1053B8009BB2F5E79C4211D8224649463046FFF792
:1053C80081FFA7421ED008F101082644A1443F1BD3
:1053D800BFB2B7F5805FD7D83C46D7E74046FFF75E
:1053E80091FF002305E05919F05C074A88540133FE
:1053F8009BB29C42F7D84FF4805251460248FFF7BF
:1054080061FFDEE7BDE8F087D8B6002010B5044696
:105418000E4B18784FF47A73B3FBF0F30C4A10680C
:10542800B0FBF3F000F0A8F868B90F2C01D90120FF
:105438000AE0002221464FF0FF3000F057F8054BF4
:105448001C60002000E0012010BD00BF2E000020DD
:10545800280000203000002008B5074A136843F0F0
:1054680010031360032000F02FF80F20FFF7CEFF82
:10547800FFF7B6FC002008BD00200240034A11686F
:10548800034B1B780B441360704700BFD8C600203D
:105498002E000020014B1868704700BFD8C60020B6
:1054A80038B50446FFF7F6FF0546B4F1FF3F02D0D2
:1054B800044B1B781C44FFF7EDFF401BA042FAD3B6
:1054C80038BD00BF2E000020074AD36823F4E063EC
:1054D8001B041B0C000200F4E060034343F0BF63AD
:1054E80043F40033D360704700ED00E000B5194B7A
:1054F800DB68C3F30223C3F1070CBCF1040F28BF18
:105508004FF0040C03F1040EBEF1060F18D9033B4B
:105518004FF0FF3E0EFA0CFC21EA0C0199400EFAFE
:1055280003F322EA0303194300280BDB0901C9B27C
:1055380000F1604000F5614080F800135DF804FB5D
:105548000023E5E700F00F000901C9B2024B195426
:10555800F4E700BF00ED00E014ED00E0002807DBF1
:1055680000F01F02400901239340024A42F820300C
:10557800704700BF00E100E00138B0F1807F0BD236
:105588004FF0E0235861054AF02182F823100020EB
:10559800986107221A6170470120704700ED00E00A
:1055A80000283AD010B4024600681D4B984229D80A
:1055B8001C4B03441C49A1FB03131B099B001364E8
:1055C8001A4BD363022382F82130016821F47F51FA
:1055D80021F03001536894682343D4682343146945
:1055E80023435469234394692343D46923430B43D6
:1055F800036000209063012382F8213082F82000A4
:1056080010BC70470A4B03440749A1FB03131B094D
:105618009B001364074BD363D4E70120704700BF96
:1056280007040240F8FFFDBFCDCCCCCC00000240FF
:10563800F8FBFDBF0004024090F82130022B06D091
:1056480004238363002380F8203001207047026818
:10565800136823F00E0313600268136823F0010334
:105668001360036CC16B012202FA03F34B6080F8EC
:105678002120002380F820301846704708B590F89C
:105688002130022B03D004238363012008BD026864
:10569800136823F00E0313600268136823F00103F4
:1056A800136003684B4A93424ED9783A934224D008
:1056B8001432934230D0143293422FD01432934292
:1056C8002FD0143293422FD0143293422FD0143259
:1056D80093422FD002F5627293422ED01432934235
:1056E8002DD0143293422CD01432934202D04FF46E
:1056F800803203E04FF4805200E00122364B5A60BA
:10570800012380F82130002380F82030436B002BE0
:105718005ED098470020B9E71022EFE74FF4807277
:10572800ECE74FF48052E9E74FF48032E6E74FF4B4
:105738008012E3E74FF08072E0E70122DEE71022F3
:10574800DCE74FF48072D9E7244A934224D014321C
:10575800934225D01432934224D01432934224D059
:105768001432934224D01432934224D014329342F8
:1057780024D002F56272934223D01432934222D08D
:105788001432934221D01432934202D04FF4803223
:1057980003E04FF4805200E00122114B5A60AFE75A
:1057A8001022FAE74FF48072F7E74FF48052F4E7DB
:1057B8004FF48032F1E74FF48012EEE74FF0807239
:1057C800EBE70122E9E71022E7E74FF48072E4E70C
:1057D80000205BE78000024000040240080002400D
:1057E8000000024038B5C36B1A6804682568016C6C
:1057F80004238B40134200F09B8015F0040F00F047
:105808009780236813F0200F03D1236823F0040343
:10581800236003689A4A934246D9783A934224D03F
:105828001432934228D01432934227D01432934230
:1058380027D01432934227D01432934227D01432FF
:10584800934227D002F56272934226D014329342D3
:1058580025D01432934224D01432934202D04FF40C
:10586800802203E04FF4804200E00422854B5A6016
:10587800C36A03B1984738BD4022F7E74FF4806206
:10588800F4E74FF48042F1E74FF48022EEE74FF45B
:105898008002EBE74FF08062E8E70422E6E7402267
:1058A800E4E74FF48062E1E7774A934224D0143268
:1058B800934225D01432934224D01432934224D0F8
:1058C8001432934224D01432934224D01432934297
:1058D80024D002F56272934223D01432934222D02C
:1058E8001432934221D01432934202D04FF48022D2
:1058F80003E04FF4804200E00422644B5A60B7E7AB
:105908004022FAE74FF48062F7E74FF48042F4E769
:105918004FF48022F1E74FF48002EEE74FF0806207
:10592800EBE70422E9E74022E7E74FF48062E4E787
:1059380002238B40134200F0AB8015F0020F00F0F9
:10594800A780236813F0200F06D1236823F00A03E9
:105958002360012380F821300368494A93424BD9D8
:10596800783A934224D0143293422DD01432934281
:105978002CD0143293422CD0143293422CD01432AF
:1059880093422CD0143293422CD002F56272934287
:105998002BD0143293422AD01432934229D0143295
:1059A800934202D04FF4003203E04FF4005200E07B
:1059B8000222344B5A60002380F82030836A002B7F
:1059C8003FF459AF984756E72022F2E74FF40072A8
:1059D800EFE74FF40052ECE74FF40032E9E74FF4F9
:1059E8000012E6E74FF00072E3E70222E1E7202227
:1059F800DFE74FF40072DCE7234A934224D01432E5
:105A0800934225D01432934224D01432934224D0A6
:105A18001432934224D01432934224D01432934245
:105A280024D002F56272934223D01432934222D0DA
:105A38001432934221D01432934202D04FF40032F0
:105A480003E04FF4005200E00222104B5A60B2E724
:105A58002022FAE74FF40072F7E74FF40052F4E718
:105A68004FF40032F1E74FF40012EEE74FF0007206
:105A7800EBE70222E9E72022E7E74FF40072E4E7C8
:105A8800800002400004024008000240000002407A
:105A9800082303FA01F111423FF4EDAE15F0080FA7
:105AA8003FF4E9AE236823F00E032360026CC16B58
:105AB800012303FA02F24A60836380F8213000234D
:105AC80080F82030036B002B3FF4D5AE9847D2E620
